{
    "_format": "hh-sol-artifact-1",
    "contractName": "Mariage",
    "sourceName": "contracts/Mariage.sol",
    "abi": [
        {
            "inputs": [
                {
                    "internalType": "address",
                    "name": "_marie1",
                    "type": "address"
                },
                {
                    "internalType": "address",
                    "name": "_marie2",
                    "type": "address"
                }
            ],
            "stateMutability": "nonpayable",
            "type": "constructor"
        },
        {
            "anonymous": false,
            "inputs": [
                {
                    "indexed": false,
                    "internalType": "address",
                    "name": "personneDecedee",
                    "type": "address"
                }
            ],
            "name": "DecesDeclare",
            "type": "event"
        },
        {
            "anonymous": false,
            "inputs": [
                {
                    "indexed": false,
                    "internalType": "address",
                    "name": "marie1",
                    "type": "address"
                },
                {
                    "indexed": false,
                    "internalType": "address",
                    "name": "marie2",
                    "type": "address"
                }
            ],
            "name": "DivorceDeclare",
            "type": "event"
        },
        {
            "anonymous": false,
            "inputs": [
                {
                    "indexed": false,
                    "internalType": "address",
                    "name": "enfant",
                    "type": "address"
                },
                {
                    "indexed": false,
                    "internalType": "address",
                    "name": "parent1",
                    "type": "address"
                },
                {
                    "indexed": false,
                    "internalType": "address",
                    "name": "parent2",
                    "type": "address"
                }
            ],
            "name": "EnfantAjoute",
            "type": "event"
        },
        {
            "inputs": [
                {
                    "internalType": "address",
                    "name": "_enfant",
                    "type": "address"
                }
            ],
            "name": "ajouterEnfant",
            "outputs": [],
            "stateMutability": "nonpayable",
            "type": "function"
        },
        {
            "inputs": [
                {
                    "internalType": "address",
                    "name": "_personne",
                    "type": "address"
                }
            ],
            "name": "declarerDeces",
            "outputs": [],
            "stateMutability": "nonpayable",
            "type": "function"
        },
        {
            "inputs": [],
            "name": "declarerDivorce",
            "outputs": [],
            "stateMutability": "nonpayable",
            "type": "function"
        },
        {
            "inputs": [
                {
                    "internalType": "address",
                    "name": "",
                    "type": "address"
                }
            ],
            "name": "estDecede",
            "outputs": [
                {
                    "internalType": "bool",
                    "name": "",
                    "type": "bool"
                }
            ],
            "stateMutability": "view",
            "type": "function"
        },
        {
            "inputs": [
                {
                    "internalType": "address",
                    "name": "",
                    "type": "address"
                }
            ],
            "name": "estDivorce",
            "outputs": [
                {
                    "internalType": "bool",
                    "name": "",
                    "type": "bool"
                }
            ],
            "stateMutability": "view",
            "type": "function"
        },
        {
            "inputs": [
                {
                    "internalType": "address",
                    "name": "",
                    "type": "address"
                }
            ],
            "name": "estParent",
            "outputs": [
                {
                    "internalType": "bool",
                    "name": "",
                    "type": "bool"
                }
            ],
            "stateMutability": "view",
            "type": "function"
        },
        {
            "inputs": [],
            "name": "marie2",
            "outputs": [
                {
                    "internalType": "address",
                    "name": "",
                    "type": "address"
                }
            ],
            "stateMutability": "view",
            "type": "function"
        },
        {
            "inputs": [],
            "name": "getMarie2",
            "outputs": [
                {
                    "internalType": "address",
                    "name": "",
                    "type": "address"
                }
            ],
            "stateMutability": "view",
            "type": "function"
        },
        {
            "inputs": [],
            "name": "getMarie1",
            "outputs": [
                {
                    "internalType": "address",
                    "name": "",
                    "type": "address"
                }
            ],
            "stateMutability": "view",
            "type": "function"
        },
        {
            "inputs": [],
            "name": "marie1",
            "outputs": [
                {
                    "internalType": "address",
                    "name": "",
                    "type": "address"
                }
            ],
            "stateMutability": "view",
            "type": "function"
        },
        {
            "inputs": [
                {
                    "internalType": "address",
                    "name": "_conjoint",
                    "type": "address"
                }
            ],
            "name": "leConjoint",
            "outputs": [
                {
                    "internalType": "address",
                    "name": "",
                    "type": "address"
                }
            ],
            "stateMutability": "view",
            "type": "function"
        }
    ],
    "bytecode": "0x608060405234801561001057600080fd5b5060405161073c38038061073c83398101604081905261002f9161007c565b600080546001600160a01b039384166001600160a01b031991821617909155600180549290931691161790556100af565b80516001600160a01b038116811461007757600080fd5b919050565b6000806040838503121561008f57600080fd5b61009883610060565b91506100a660208401610060565b90509250929050565b61067e806100be6000396000f3fe608060405234801561001057600080fd5b50600436106100a95760003560e01c80634ebd192c116100715780634ebd192c1461014157806351dc0894146101645780638a26877f14610177578063c4c1863f1461019a578063f4443beb146101ab578063f4c07151146101bc57600080fd5b806303a361d0146100ae5780630686deb4146100e65780630aae3b2f146100f05780630d2339f51461011b5780632429b3e81461012e575b600080fd5b6100d16100bc366004610618565b60046020526000908152604090205460ff1681565b60405190151581526020015b60405180910390f35b6100ee6101cf565b005b600154610103906001600160a01b031681565b6040516001600160a01b0390911681526020016100dd565b600054610103906001600160a01b031681565b6100ee61013c366004610618565b610319565b6100d161014f366004610618565b60026020526000908152604090205460ff1681565b6100ee610172366004610618565b610468565b6100d1610185366004610618565b60036020526000908152604090205460ff1681565b6001546001600160a01b0316610103565b6000546001600160a01b0316610103565b6101036101ca366004610618565b6105c1565b6000546001600160a01b03163314806101f257506001546001600160a01b031633145b6102435760405162461bcd60e51b815260206004820152601b60248201527f566f757320646576657a206574726520756e20636f6e6a6f696e74000000000060448201526064015b60405180910390fd5b3360009081526004602052604090205460ff161561029c5760405162461bcd60e51b8152602060048201526016602482015275566f757320657465732064656a61206469766f72636560501b604482015260640161023a565b600080546001600160a01b0390811682526004602090815260408084208054600160ff1991821681179092558154851686528286208054909116821790559354935481519484168552909216908301527f1e5551fea0b6213c02b8bff0ed7574c892a60653ea0731569b6e20ff46f040f9910160405180910390a1565b6000546001600160a01b031633148061033c57506001546001600160a01b031633145b6103885760405162461bcd60e51b815260206004820152601b60248201527f566f757320646576657a206574726520756e20636f6e6a6f696e740000000000604482015260640161023a565b6000546001600160a01b03828116911614806103b157506001546001600160a01b038281169116145b61040d5760405162461bcd60e51b815260206004820152602760248201527f5365756c20756e20636f6e6a6f696e742070657574206465636c6172657220756044820152666e20646563657360c81b606482015260840161023a565b6001600160a01b038116600081815260036020908152604091829020805460ff1916600117905590519182527f0193cb395b7fbc4a215bbb5fbb874ed434ec349fe43b629c3ebccfb65f306ae391015b60405180910390a150565b6000546001600160a01b031633148061048b57506001546001600160a01b031633145b6104d75760405162461bcd60e51b815260206004820152601960248201527f566f757320646576657a206574726520756e20706172656e7400000000000000604482015260640161023a565b3360009081526004602052604090205460ff16156105515760405162461bcd60e51b815260206004820152603160248201527f566f75732065746573206469766f7263652c20696d706f737369626c65206427604482015270185a9bdd5d195c881d5b88195b99985b9d607a1b606482015260840161023a565b6001600160a01b038181166000818152600260209081526040808320805460ff19166001908117909155925492548151948552928516918401919091529216918101919091527f818dacbe67ba9beec35f6e535a939267f6f402fc18183dadd0a63fa5d588904c9060600161045d565b600080546001600160a01b03908116908316036105e95750506001546001600160a01b031690565b6001546001600160a01b03908116908316036106105750506000546001600160a01b031690565b506000919050565b60006020828403121561062a57600080fd5b81356001600160a01b038116811461064157600080fd5b939250505056fea26469706673582212201fc9b72ae6181758526497138a6c4e024ea02e0fb614643c2e1bc8e2bfb3ce6864736f6c63430008180033",
    "linkReferences": {},
    "deployedLinkReferences": {}
}